:040000000CEF00F011
:10000800FACF01F0FBCF02F0E9CF03F00EED00F0DC
:10001800CBEF00F00600EACF04F0E1CF05F0E2CF25
:1000280006F0D9CF07F0DACF08F0F3CF09F0F4CF14
:100038000AF0F6CF0BF0F7CF0CF0F8CF0DF0F5CFB4
:100048000EF0F2A401D001D007D0F2AA01D001D05D
:1000580003D08274F29400D00EC0F5FF0DC0F8FFF3
:100068000CC0F7FF0BC0F6FF0AC0F4FF09C0F3FF8E
:1000780008C0DAFF07C0D9FF06C0E2FF05C0E1FFEC
:1000880004C0EAFF03C0E9FF02C0FBFF01C0FAFF9A
:100098001100000E106E000E0F6E1050800A590FDE
:1000A800100ED8B40F5CD8A001D001D002D02BD04C
:1000B8002AD0000E126E000E116E1250800A800FA8
:1000C800640ED8B4115CD8A001D001D002D00ED0F3
:1000D8000DD0114A122A1250800A800F640ED8B42B
:1000E800115CD8A001D001D0F4D700D00F4A102A53
:1000F8001050800A590F100ED8B40F5CD8A001D048
:1001080001D0D7D700D01200BEEC00F0B5EC00F05B
:10011800C6EC00F0839000D0839283844DEC00F00D
:10012800839283944DEC00F0839283844DEC00F02D
:10013800838283844DEC00F0EFD7EED70CEF00F00C
:100148000F507F0BD56E000ED76E000ED66EF29450
:100158000FAE01D001D002D0F28A01D0F29AD58E2A
:100168001200106ED70E0F6E1050A4EC00F0F2942F
:10017800F28E12000F0EC16EF19E938293849386C5
:10018800938812009494959095929594120000018A
:0401980088EF00F0FC
:00000001FF
