:020000040000FA
:0600000067EF01F01200A1
:020006000000F8
:08000800D9CFE6FFE1CFD9FFDB
:10001000020EE126DE6ADD6A926A806A956A83686A
:10002000FC0E946E030E826E070EE66EAF0EE66E49
:1000300023EC01F0E552E552DECF00F0DDCF01F018
:10004000D890015004E6980E005C030E015802E3BC
:10005000828201D08292DECF00F0DDCF01F0D89015
:10006000015004E6320E005C030E015802E3828068
:1000700001D08290DECF00F0DDCF01F0D8900150AA
:1000800004E6CC0E005C020E015802E3838E01D020
:10009000839EDECF00F0DDCF01F0D890015004E662
:1000A000650E005C020E015802E3838C01D0839C34
:1000B000DECF00F0DDCF01F0D890015004E6FF0E56
:1000C000005C010E015802E3838A01D0839ADECFDF
:1000D00000F0DDCF01F0D890015004E6990E005CED
:1000E000010E015802E3838801D08398DECF00F02F
:1000F000DDCF01F0D890015004E6320E005C010E15
:10010000015802E3838601D08396DECF00F0DDCF75
:1001100001F0D890015004E6CC0E005C000E0158AE
:1001200002E3838401D08394DECF00F0DDCF01F0C1
:10013000D890015004E6CC0E005C000E015802E39A
:10014000838201D08392DECF00F0DDCF01F0D89022
:10015000015004E6660E005C000E015802E3838045
:1001600001D08390010EE66E47EC01F0E552050EDA
:10017000E66E75EC01F0E5528EEC01F089EC01F0D1
:10018000000901E0FBD780EC01F0F3CFDEFFF4CFF4
:10019000DDFF52D7020EE15C02E2E16AE552E16E58
:0801A000E552E7CFD9FF120080
:0801A800060EF66E000EF76E64
:1001B000000EF86E00010900F550856F0900F5503A
:1001C000866F03E1856701D03DD00900F550806F4F
:1001D0000900F550816F0900F550826F0900090090
:1001E000F550E96E0900F550EA6E090009000900B2
:1001F000F550836F0900F550846F09000900F6CFB0
:1002000087F0F7CF88F0F8CF89F080C0F6FF81C083
:10021000F7FF82C0F8FF0001835302E1845307E037
:100220000900F550EE6E8307F8E28407F9D787C01E
:10023000F6FF88C0F7FF89C0F8FF00018507000EB0
:06024000865BBFD712002F
:0A024600D9CFE6FFDACFE6FFE1CFE3
:10025000D9FFE2CFDAFFC26AFD0EDB50C16EFC0EA1
:10026000DB50380B006EFD0EDB50040DF350C00B5D
:100270000010C26EFC0EDBAE03D09E9C9D8CF28CF7
:0E028000C280E552E5CFDAFFE7CFD9FF1200CA
:02028E00FF0E61
:10029000E350066E480E01D04C0EE76EE72EFED7F7
:0E02A000E76AE72EFED7062EF7D70000120001
:0202AE00000E40
:1002B000F36E00EE00F0060E01D81200EA6002D0E4
:0E02C000EE6AFCD7F350E9601200EE6AFCD73C
:0202CE0014EE2C
:1002D00000F024EE00F0F86A059CD4EC00F090ECFD
:0A02E00001F004EC00F0FBD712005F
:0602EA00FF0EE350E84E98
:1002F0001200000000D000D000D0E82EFAD7120083
:10030000C450036E026AC3500210F36E03C0F4FFC0
:020310001200D9
:0A031200C250040B01E0010E1200BE
:04031C00C284120085
:020320001200C9
:020000040030CA
:0100010022DC
:010003000EEE
:00000001FF
