:020000000F28C7
:10000800CE00030E83128D0004088E000A088F00AC
:100018004F0890001028D0288B1C13281428262855
:100028000B1E1728182826281030860604308C0046
:100038000C0897008B1681010B11831606100B1202
:100048008B1026280B1D29282A2854288B1E2D287A
:100058002E2854280130831295070318960A003079
:10006800960701301606031D3B2831301506031D7F
:100078003E283F2852281708031D432848280130E6
:100088009702013086064E288B12831606140B162B
:100098008B104E2883129501960152280B11542873
:1000A80083121008CF000F088A000E0884000D0E76
:1000B8008300CE0E4E0E09008312910192011208A0
:1000C800803ACF0080304F02031D6C281430110293
:1000D800031C6F2870287228AE28AE28831293015B
:1000E80094011408803ACF00A7304F02031D7E28E0
:1000F80010301302031C8128822884289928992803
:100108000130831293070318940A003094071408E7
:10011800803ACF00A7304F02031D942810301302F5
:10012800031C97289828842899280130831291075E
:100138000318920A003092071208803ACF008030E4
:100148004F02031DA92814301102031CAC28AD2846
:100158007228AE280800C4208316861006110510E0
:100168008510831286140611B92883120514851088
:1001780060208312051085146020B928B9280F283B
:100188008316061401130B168B108B17811281111D
:100198000115811001140800950196019701980135
:0401A8008301AF28F8
:02400E00FAFFB7
:00000001FF
