:0400000097EF03F083
:10020000746D72323A2031362000746D72323A20A9
:10021000312000746D72323A2034200050657269CA
:100220006F643A200020202020200000DEEC03F044
:10023000E9EC03F0AEEC03F00001158200D081B0D0
:1002400001D001D010D0410E116EEE0EE82EFED777
:10025000112EFCD700F0162A00D081A001D001D0C9
:10026000FCD70001158281B201D001D031D0410EFE
:10027000116EEE0EE82EFED7112EFCD700F0172AD5
:100280001750040AD8A401D001D010D0116E010E6D
:10029000176E11500BD00AD0070ECA6E13D0050E80
:1002A000CA6E10D0040ECA6E0DD00CD01750010AC1
:1002B000D8B4F2D7030AD8B4F2D7010AD8B4F2D727
:1002C00001D000D081A201D001D0FCD7000115825D
:1002D000000115A201D001D0B2D716C0CBFF16C0C5
:1002E00001F0026A000E046E020E036EA1EC02F031
:1002F0000150BE6E00011592116E020E026E115079
:10030000D0EC03F0020E056E1C0E046E53EC03F0ED
:10031000630E166401D001D02FD016C001F0026A1E
:10032000000E046E640E036EA1EC02F00150300F5B
:10033000126E000E046E0A0E036E16C001F0026A01
:10034000A1EC02F001C00AF002C00BF0000E0D6E2D
:100350000A0E0C6EFFEC02F00A50300F136E16C03E
:100360000AF00B6A000E0D6E0A0E0C6EFFEC02F026
:100370000A50300F146E2FD0090E166401D001D030
:100380001DD016C001F0026A000E046E0A0E036E44
:10039000A1EC02F00150300F126E16C00AF00B6A89
:1003A000000E0D6E0A0E0C6EFFEC02F00A50300FBC
:1003B000136E116E200E146E11500DD01650300FAA
:1003C000126E116E200E136E1150116E200E146EEF
:1003D000115001D000D0000E056E120E046E53ECC9
:1003E00003F0020E056E250E046E53EC03F0116E41
:1003F000C00E026E1150D0EC03F01704D8A401D047
:1004000001D007D0020E056E000E046E53EC03F00F
:1004100000D01750020AD8A401D001D007D0020E94
:10042000056E130E046E53EC03F000D01750030A50
:10043000D8A401D001D003D7020E056E0A0E046EB7
:1004400053EC03F0FCD6FBD6FAD6F9D600EF00F059
:1004500000011590046601D001D007D0000115807D
:10046000056E030E066E055005D0056E3F0E066E36
:10047000055000D08490849484929690969496929D
:10048000F00E9216620E056E650EE82EFED7052E52
:10049000FCD700D08484F00E801606500F0B80121B
:1004A0008494210E056E760EE82EFED7052EFCD71D
:1004B00000F08484065080128494FA0E00F0E82E36
:1004C000FDD78484065080128494FA0E00F0E82E42
:1004D000FDD7000115A001D001D014D0210E056E6A
:1004E000760EE82EFED7052EFCD700F08484F00EA1
:1004F000801680828494056E280E026E0550D0EC22
:1005000003F006D0056E380E026E0550D0EC03F0F5
:10051000056E0C0E026E0550D0EC03F0056E010E58
:10052000026E0550D0EC03F0056E060E026E05500B
:10053000D0EC03F0056E800E026E0550D0EC03F097
:100540001200056E000E076E055004AE01D001D0FA
:1005500009D0036C041ED8B0042A056E010E076E84
:10056000055000D002AE01D001D007D0016C021EB0
:10057000D8B0022A010E071A00D0000E096E000E34
:10058000086E04500310D8B401D001D028D0056EF5
:10059000010E066E055005D0D89003360436062AA3
:1005A00000D004AE01D001D0F7D701D000D0D89050
:1005B000083609360350015C04500258D8A001D017
:1005C00001D006D00350015E0450025A088000D0CA
:1005D000D89004320332062EEAD701D000D007505B
:1005E000D8B401D001D005D0086C091ED8B0092AB2
:1005F00000D008C001F009C002F000D012000E6E59
:10060000000E106E0E500BAE01D001D009D00A6C56
:100610000B1ED8B00B2A0E6E010E106E0E5000D0BD
:100620000DAE01D001D005D00C6C0D1ED8B00D2A36
:1006300000D00D500C10D8B401D001D024D00E6ED3
:10064000010E0F6E0E5005D0D8900C360D360F2AC5
:1006500000D00DAE01D001D0F7D701D000D00C50A2
:100660000A5C0D500B58D8A001D001D005D00C5019
:100670000A5E0D500B5A00D0D8900D320C320F2E5E
:10068000EED701D000D01050D8B401D001D005D0A1
:100690000A6C0B1ED8B00B2A00D00AC00AF00BC09F
:1006A0000BF000D0120014D00450F66EE96E010E6B
:1006B000EA6E0550EA6403D0EA6EEF5003D0F76E9D
:1006C0000800F550026EC1EC03F0044A052A00D080
:1006D0000450F66EE96E010EEA6E0550EA6403D02E
:1006E000EA6EEF5003D0F76E0800F5500009D8A469
:1006F00001D001D0D9D700D012008484000115A008
:1007000001D001D010D0F00E801601380F0B0F0B66
:100710008012849400F000F08484F00E8016015062
:100720000F0B801202D001C080FF84941200156A62
:10073000146A136A126AE00EF66E070EF76E000E68
:10074000F86E0900F5CF16F00900F5CF17F0000E8E
:10075000F86E020EF76E000116EF01F0949416C0C9
:10076000CBFF16C001F0026A000E046E020E036E8B
:10077000A1EC02F00150BE6E070ECA6E0F0EBD6EE8
:100780001200210E036E760EE82EFED7032EFCD744
:1007900000F0848002C001F07DEC03F08490120030
:1007A000210E036E760EE82EFED7032EFCD700F046
:1007B000849002C001F07DEC03F012000F0EC16EB8
:1007C000000E966E076E000E046E075028EC02F0C5
:1007D00012000F0EC16EF19E818081828184120011
:0207E000F00126
:00000001FF
