:020000000F28C7
:10000800CE00030E83129800040899000A089A008B
:100018004F089B001028D7290B1D1328142879286E
:100028008B1E1728182879281F081E0403191D2855
:100038001E28772801301F024F3003191E020318AB
:10004800262827286428231C2A282B28642872306D
:100058008400002192000630930013088C002208C7
:10006800673E840000217821831294000130140730
:1000780095002108150784000021120596009701B4
:100088001608900017089100B2218312A108031DD9
:100098004E284F286128013092001208A207063026
:1000A80092001208A10022082006031D5C285D2882
:1000B80061282310A201612861280130A1026F285C
:1000C80072308400002192009301120890001308F6
:1000D8009100B2216F28013083129E020030031C68
:1000E8009F039F0277280B1179288B1C7C287D2879
:1000F80088280B1E80288128882868309E000130B7
:100108009F0023148B1088281B08CF001A088A0028
:0E01180019088400180E8300CE0E4E0E09004A
:1002000001308A000408840A820700340F34C7349E
:10021000D934C3340F34FF3401346D346D346D344C
:100220000134FF3401347D347D347D34FF34FF34B8
:10023000013401347D347D348334FF3401346D3432
:100240006D346D346D34FF340134EF34EF34EF34FA
:100250000134FF347D347D3401347D347D34FF340A
:1002600001347F347F347F347F34FF3483347D34F2
:100270007D347D348334FF340134ED34ED34ED349A
:10028000F334FF340134CD34CD34AD347134FF3424
:10029000F934F3340734F334F934FF34FD34FD34E6
:1002A0000134FD34FD34FF34F134C7341F34C73416
:1002B000F134FF3401348F34E3348F340134FF34AC
:1002C000FF34FF34FF34FF34FF34FF34FF34EF34A6
:1002D000EF34EF34FF34FF34033407340A34083486
:1002E0000E340F3408340734073404340534FE3434
:1002F00083128F008E010F1C7E297F2984290C0810
:100300008D000D088E07842903108C0D03108F0CAF
:100310008F08031D8C298D297B298E290E08902991
:100320000800DF21CE21C221FF3083129C00003063
:100330009D00A221683083129E0001309F00A029F9
:10034000A0290F280F3083128500F0308600061593
:1003500006111C080F3985001C08F0398600861428
:10036000861008000F3083128500F03086000615D5
:10037000061110080F3985001008F0398600861420
:1003800086100800831686100611051085100511C9
:100390008511061286120613861308008316811231
:1003A00002308100831281018B160B110800A2011B
:1003B000A301E621A000E721A10083019129831672
:1003C000061401130B168B108B1708000B34043422
:02400E00FAFFB7
:00000001FF
