:020000000F28C7
:10000800CE00030E83129B0004089C000A089D0082
:100018004F089E0010287E280B1D132814287328CB
:100028008B1E17281828732801309F070318A00A69
:100038000030A00700302002063003191F02031801
:1000480026282728372822089A001A070C3E8400F9
:10005800831300089800840A000899009D20013045
:100068008312A202472800302002073003191F021A
:10007800031C3F2840284728FF309800003099008B
:100088009D2047284728831217082006031D4E285D
:1000980016081F06031D512852287128013096079B
:1000A8000318970A0030970704309A001A08A2002C
:1000B800FF309800003099009D2083129F01A00115
:1000C800F73016061704031D6A286B287128EE30CE
:1000D800960000309700712871280B1173281E08AC
:1000E800CF001D088A001C0884001B0E8300CE0E5A
:1000F8004E0E09009F01A001A101A201A301BC208D
:100108008C00BD208D00BE208E00BF208F00C02037
:100118009000C1209100C2209200C3209300C42007
:100128009400C5209500C6209600C720970083013B
:10013800AD280F3083128500F030860006150611B1
:1001480018080F3985001808F039860086148610BB
:100158000800C820831686100611051085100511A1
:1001680085110612861206138613BA28BA280F2894
:10017800D5340034D5340034D5340034D534003483
:10018800C1340034EE340034831681120230810009
:0C019800831281018B160B118B170800DD
:02400E00FAFFB7
:00000001FF
