:020000000F28C7
:10000800CE00030E83129000040891000A089200A3
:100018004F0893005F28B02883128C018D010D08CA
:10002800803ACF0080304F02031D1C2814300C0288
:10003800031C1F28202822285E285E2883128E0190
:100048008F010F08803ACF00A7304F02031D2E28DA
:1000580010300E02031C3128322834284928492838
:10006800013083128E0703188F0A00308F070F089C
:10007800803ACF00A7304F02031D442810300E02EB
:10008800031C4728482834284928013083128C0744
:1000980003188D0A00308D070D08803ACF00803094
:1000A8004F02031D592814300C02031C5C285D28DC
:1000B80022285E2808008B1C6228632876280B1EDD
:1000C800662867287628FF308C0000308D00942041
:1000D8001020003083128C0000308D0094201020F6
:1000E8008B10762883121308CF0012088A00110893
:1000F8008400100E8300CE0E4E0E090083160614DF
:1001080001130B168B108112811101158110011436
:1001180005308100831281018B160B118B170800A3
:100128000F3083128500F0308600061506110C0882
:100138000F3985000C08F0398600861486100800EF
:1001480083168610061105108510051185110612F3
:1001580086120613861308009401950196019701EB
:0E0168008301B6288220A420B928B9280F28C8
:02400E00FAFFB7
:00000001FF
